{
	"data": {
		"bytecode": {
			"linkReferences": {},
			"object": "6080604052348015600e575f5ffd5b506101028061001c5f395ff3fe6080604052348015600e575f5ffd5b50600436106026575f3560e01c8063f0ebce5a14602a575b5f5ffd5b60306044565b604051603b919060b5565b60405180910390f35b5f5f905090565b7f4e487b71000000000000000000000000000000000000000000000000000000005f52602160045260245ffd5b600781106086576085604b565b5b50565b5f8190506094826078565b919050565b5f60a1826089565b9050919050565b60af816099565b82525050565b5f60208201905060c65f83018460a8565b9291505056fea26469706673582212204f4237eb4af02dcff11aec574e2cb04c9ac7f04a05935db3e8ff5c3a5407791164736f6c634300081e0033",
			"opcodes": "PUSH1 0x80 PUSH1 0x40 MSTORE CALLVALUE DUP1 ISZERO PUSH1 0xE JUMPI PUSH0 PUSH0 REVERT JUMPDEST POP PUSH2 0x102 DUP1 PUSH2 0x1C PUSH0 CODECOPY PUSH0 RETURN INVALID PUSH1 0x80 PUSH1 0x40 MSTORE CALLVALUE DUP1 ISZERO PUSH1 0xE JUMPI PUSH0 PUSH0 REVERT JUMPDEST POP PUSH1 0x4 CALLDATASIZE LT PUSH1 0x26 JUMPI PUSH0 CALLDATALOAD PUSH1 0xE0 SHR DUP1 PUSH4 0xF0EBCE5A EQ PUSH1 0x2A JUMPI JUMPDEST PUSH0 PUSH0 REVERT JUMPDEST PUSH1 0x30 PUSH1 0x44 JUMP JUMPDEST PUSH1 0x40 MLOAD PUSH1 0x3B SWAP2 SWAP1 PUSH1 0xB5 JUMP JUMPDEST PUSH1 0x40 MLOAD DUP1 SWAP2 SUB SWAP1 RETURN JUMPDEST PUSH0 PUSH0 SWAP1 POP SWAP1 JUMP JUMPDEST PUSH32 0x4E487B7100000000000000000000000000000000000000000000000000000000 PUSH0 MSTORE PUSH1 0x21 PUSH1 0x4 MSTORE PUSH1 0x24 PUSH0 REVERT JUMPDEST PUSH1 0x7 DUP2 LT PUSH1 0x86 JUMPI PUSH1 0x85 PUSH1 0x4B JUMP JUMPDEST JUMPDEST POP JUMP JUMPDEST PUSH0 DUP2 SWAP1 POP PUSH1 0x94 DUP3 PUSH1 0x78 JUMP JUMPDEST SWAP2 SWAP1 POP JUMP JUMPDEST PUSH0 PUSH1 0xA1 DUP3 PUSH1 0x89 JUMP JUMPDEST SWAP1 POP SWAP2 SWAP1 POP JUMP JUMPDEST PUSH1 0xAF DUP2 PUSH1 0x99 JUMP JUMPDEST DUP3 MSTORE POP POP JUMP JUMPDEST PUSH0 PUSH1 0x20 DUP3 ADD SWAP1 POP PUSH1 0xC6 PUSH0 DUP4 ADD DUP5 PUSH1 0xA8 JUMP JUMPDEST SWAP3 SWAP2 POP POP JUMP INVALID LOG2 PUSH5 0x6970667358 0x22 SLT KECCAK256 0x4F TIMESTAMP CALLDATACOPY 0xEB BLOBBASEFEE CREATE 0x2D 0xCF CALL BYTE EOFCREATE 0x57 0x4E 0x2C 0xB0 0x4C SWAP11 0xC7 CREATE BLOBBASEFEE SDIV SWAP4 TSTORE 0xB3 0xE8 SELFDESTRUCT TLOAD GASPRICE SLOAD SMOD PUSH26 0x1164736F6C634300081E00330000000000000000000000000000 "
		},
		"gasEstimates": {
			"creation": {
				"codeDepositCost": "51600",
				"executionCost": "103",
				"totalCost": "51703"
			},
			"external": {
				"getEnum()": "403"
			}
		},
		"methodIdentifiers": {
			"getEnum()": "f0ebce5a"
		}
	},
	"abi": [
		{
			"inputs": [],
			"name": "getEnum",
			"outputs": [
				{
					"internalType": "enum enumSaya.Weeks",
					"name": "",
					"type": "uint8"
				}
			],
			"stateMutability": "pure",
			"type": "function"
		}
	]
}